{
  "contractName": "ZNFT",
  "abi": [
    {
      "inputs": [],
      "stateMutability": "nonpayable",
      "type": "constructor"
    },
    {
      "anonymous": false,
      "inputs": [
        {
          "indexed": true,
          "internalType": "address",
          "name": "owner",
          "type": "address"
        },
        {
          "indexed": true,
          "internalType": "address",
          "name": "approved",
          "type": "address"
        },
        {
          "indexed": true,
          "internalType": "uint256",
          "name": "tokenId",
          "type": "uint256"
        }
      ],
      "name": "Approval",
      "type": "event"
    },
    {
      "anonymous": false,
      "inputs": [
        {
          "indexed": true,
          "internalType": "address",
          "name": "owner",
          "type": "address"
        },
        {
          "indexed": true,
          "internalType": "address",
          "name": "operator",
          "type": "address"
        },
        {
          "indexed": false,
          "internalType": "bool",
          "name": "approved",
          "type": "bool"
        }
      ],
      "name": "ApprovalForAll",
      "type": "event"
    },
    {
      "anonymous": false,
      "inputs": [
        {
          "indexed": true,
          "internalType": "address",
          "name": "previousOwner",
          "type": "address"
        },
        {
          "indexed": true,
          "internalType": "address",
          "name": "newOwner",
          "type": "address"
        }
      ],
      "name": "OwnershipTransferred",
      "type": "event"
    },
    {
      "anonymous": false,
      "inputs": [
        {
          "indexed": true,
          "internalType": "address",
          "name": "from",
          "type": "address"
        },
        {
          "indexed": true,
          "internalType": "address",
          "name": "to",
          "type": "address"
        },
        {
          "indexed": true,
          "internalType": "uint256",
          "name": "tokenId",
          "type": "uint256"
        }
      ],
      "name": "Transfer",
      "type": "event"
    },
    {
      "inputs": [
        {
          "internalType": "address",
          "name": "to",
          "type": "address"
        },
        {
          "internalType": "uint256",
          "name": "tokenId",
          "type": "uint256"
        }
      ],
      "name": "approve",
      "outputs": [],
      "stateMutability": "nonpayable",
      "type": "function"
    },
    {
      "inputs": [
        {
          "internalType": "address",
          "name": "owner",
          "type": "address"
        }
      ],
      "name": "balanceOf",
      "outputs": [
        {
          "internalType": "uint256",
          "name": "",
          "type": "uint256"
        }
      ],
      "stateMutability": "view",
      "type": "function",
      "constant": true
    },
    {
      "inputs": [
        {
          "internalType": "uint256",
          "name": "tokenId",
          "type": "uint256"
        }
      ],
      "name": "getApproved",
      "outputs": [
        {
          "internalType": "address",
          "name": "",
          "type": "address"
        }
      ],
      "stateMutability": "view",
      "type": "function",
      "constant": true
    },
    {
      "inputs": [
        {
          "internalType": "address",
          "name": "owner",
          "type": "address"
        },
        {
          "internalType": "address",
          "name": "operator",
          "type": "address"
        }
      ],
      "name": "isApprovedForAll",
      "outputs": [
        {
          "internalType": "bool",
          "name": "",
          "type": "bool"
        }
      ],
      "stateMutability": "view",
      "type": "function",
      "constant": true
    },
    {
      "inputs": [],
      "name": "name",
      "outputs": [
        {
          "internalType": "string",
          "name": "",
          "type": "string"
        }
      ],
      "stateMutability": "view",
      "type": "function",
      "constant": true
    },
    {
      "inputs": [],
      "name": "owner",
      "outputs": [
        {
          "internalType": "address",
          "name": "",
          "type": "address"
        }
      ],
      "stateMutability": "view",
      "type": "function",
      "constant": true
    },
    {
      "inputs": [
        {
          "internalType": "uint256",
          "name": "tokenId",
          "type": "uint256"
        }
      ],
      "name": "ownerOf",
      "outputs": [
        {
          "internalType": "address",
          "name": "",
          "type": "address"
        }
      ],
      "stateMutability": "view",
      "type": "function",
      "constant": true
    },
    {
      "inputs": [],
      "name": "renounceOwnership",
      "outputs": [],
      "stateMutability": "nonpayable",
      "type": "function"
    },
    {
      "inputs": [
        {
          "internalType": "address",
          "name": "from",
          "type": "address"
        },
        {
          "internalType": "address",
          "name": "to",
          "type": "address"
        },
        {
          "internalType": "uint256",
          "name": "tokenId",
          "type": "uint256"
        }
      ],
      "name": "safeTransferFrom",
      "outputs": [],
      "stateMutability": "nonpayable",
      "type": "function"
    },
    {
      "inputs": [
        {
          "internalType": "address",
          "name": "from",
          "type": "address"
        },
        {
          "internalType": "address",
          "name": "to",
          "type": "address"
        },
        {
          "internalType": "uint256",
          "name": "tokenId",
          "type": "uint256"
        },
        {
          "internalType": "bytes",
          "name": "_data",
          "type": "bytes"
        }
      ],
      "name": "safeTransferFrom",
      "outputs": [],
      "stateMutability": "nonpayable",
      "type": "function"
    },
    {
      "inputs": [
        {
          "internalType": "address",
          "name": "operator",
          "type": "address"
        },
        {
          "internalType": "bool",
          "name": "approved",
          "type": "bool"
        }
      ],
      "name": "setApprovalForAll",
      "outputs": [],
      "stateMutability": "nonpayable",
      "type": "function"
    },
    {
      "inputs": [
        {
          "internalType": "bytes4",
          "name": "interfaceId",
          "type": "bytes4"
        }
      ],
      "name": "supportsInterface",
      "outputs": [
        {
          "internalType": "bool",
          "name": "",
          "type": "bool"
        }
      ],
      "stateMutability": "view",
      "type": "function",
      "constant": true
    },
    {
      "inputs": [],
      "name": "symbol",
      "outputs": [
        {
          "internalType": "string",
          "name": "",
          "type": "string"
        }
      ],
      "stateMutability": "view",
      "type": "function",
      "constant": true
    },
    {
      "inputs": [
        {
          "internalType": "uint256",
          "name": "index",
          "type": "uint256"
        }
      ],
      "name": "tokenByIndex",
      "outputs": [
        {
          "internalType": "uint256",
          "name": "",
          "type": "uint256"
        }
      ],
      "stateMutability": "view",
      "type": "function",
      "constant": true
    },
    {
      "inputs": [
        {
          "internalType": "address",
          "name": "owner",
          "type": "address"
        },
        {
          "internalType": "uint256",
          "name": "index",
          "type": "uint256"
        }
      ],
      "name": "tokenOfOwnerByIndex",
      "outputs": [
        {
          "internalType": "uint256",
          "name": "",
          "type": "uint256"
        }
      ],
      "stateMutability": "view",
      "type": "function",
      "constant": true
    },
    {
      "inputs": [
        {
          "internalType": "uint256",
          "name": "tokenId",
          "type": "uint256"
        }
      ],
      "name": "tokenURI",
      "outputs": [
        {
          "internalType": "string",
          "name": "",
          "type": "string"
        }
      ],
      "stateMutability": "view",
      "type": "function",
      "constant": true
    },
    {
      "inputs": [],
      "name": "totalSupply",
      "outputs": [
        {
          "internalType": "uint256",
          "name": "",
          "type": "uint256"
        }
      ],
      "stateMutability": "view",
      "type": "function",
      "constant": true
    },
    {
      "inputs": [
        {
          "internalType": "address",
          "name": "from",
          "type": "address"
        },
        {
          "internalType": "address",
          "name": "to",
          "type": "address"
        },
        {
          "internalType": "uint256",
          "name": "tokenId",
          "type": "uint256"
        }
      ],
      "name": "transferFrom",
      "outputs": [],
      "stateMutability": "nonpayable",
      "type": "function"
    },
    {
      "inputs": [
        {
          "internalType": "address",
          "name": "newOwner",
          "type": "address"
        }
      ],
      "name": "transferOwnership",
      "outputs": [],
      "stateMutability": "nonpayable",
      "type": "function"
    },
    {
      "inputs": [
        {
          "internalType": "address[]",
          "name": "receivers",
          "type": "address[]"
        }
      ],
      "name": "mint",
      "outputs": [],
      "stateMutability": "nonpayable",
      "type": "function"
    }
  ],
  "bytecode": "0x60806040523480156200001157600080fd5b506040518060400160405280600781526020017f5a594a204e4654000000000000000000000000000000000000000000000000008152506040518060400160405280600481526020017f5a4e4654000000000000000000000000000000000000000000000000000000008152506200009e62000092620000d860201b60201c565b620000e060201b60201c565b8160019080519060200190620000b6929190620001a4565b508060029080519060200190620000cf929190620001a4565b505050620002b9565b600033905090565b60008060009054906101000a900473ffffffffffffffffffffffffffffffffffffffff169050816000806101000a81548173ffffffffffffffffffffffffffffffffffffffff021916908373ffffffffffffffffffffffffffffffffffffffff1602179055508173ffffffffffffffffffffffffffffffffffffffff168173ffffffffffffffffffffffffffffffffffffffff167f8be0079c531659141344cd1fd0a4f28419497f9722a3daafe3b4186f6b6457e060405160405180910390a35050565b828054620001b29062000283565b90600052602060002090601f016020900481019282620001d6576000855562000222565b82601f10620001f157805160ff191683800117855562000222565b8280016001018555821562000222579182015b828111156200022157825182559160200191906001019062000204565b5b50905062000231919062000235565b5090565b5b808211156200025057600081600090555060010162000236565b5090565b7f4e487b7100000000000000000000000000000000000000000000000000000000600052602260045260246000fd5b600060028204905060018216806200029c57607f821691505b60208210811415620002b357620002b262000254565b5b50919050565b6134a680620002c96000396000f3fe608060405234801561001057600080fd5b506004361061012c5760003560e01c806370a08231116100ad578063b88d4fde11610071578063b88d4fde14610343578063bd075b841461035f578063c87b56dd1461037b578063e985e9c5146103ab578063f2fde38b146103db5761012c565b806370a08231146102b1578063715018a6146102e15780638da5cb5b146102eb57806395d89b4114610309578063a22cb465146103275761012c565b806323b872dd116100f457806323b872dd146101e95780632f745c591461020557806342842e0e146102355780634f6ccce7146102515780636352211e146102815761012c565b806301ffc9a71461013157806306fdde0314610161578063081812fc1461017f578063095ea7b3146101af57806318160ddd146101cb575b600080fd5b61014b600480360381019061014691906120c7565b6103f7565b604051610158919061210f565b60405180910390f35b610169610471565b60405161017691906121c3565b60405180910390f35b6101996004803603810190610194919061221b565b610503565b6040516101a69190612289565b60405180910390f35b6101c960048036038101906101c491906122d0565b610588565b005b6101d36106a0565b6040516101e0919061231f565b60405180910390f35b61020360048036038101906101fe919061233a565b6106ad565b005b61021f600480360381019061021a91906122d0565b61070d565b60405161022c919061231f565b60405180910390f35b61024f600480360381019061024a919061233a565b6107b2565b005b61026b6004803603810190610266919061221b565b6107d2565b604051610278919061231f565b60405180910390f35b61029b6004803603810190610296919061221b565b610843565b6040516102a89190612289565b60405180910390f35b6102cb60048036038101906102c6919061238d565b6108f5565b6040516102d8919061231f565b60405180910390f35b6102e96109ad565b005b6102f3610a35565b6040516103009190612289565b60405180910390f35b610311610a5e565b60405161031e91906121c3565b60405180910390f35b610341600480360381019061033c91906123e6565b610af0565b005b61035d6004803603810190610358919061255b565b610b06565b005b610379600480360381019061037491906126a6565b610b68565b005b6103956004803603810190610390919061221b565b610c43565b6040516103a291906121c3565b60405180910390f35b6103c560048036038101906103c091906126ef565b610cea565b6040516103d2919061210f565b60405180910390f35b6103f560048036038101906103f0919061238d565b610d7e565b005b60007f780e9d63000000000000000000000000000000000000000000000000000000007bffffffffffffffffffffffffffffffffffffffffffffffffffffffff1916827bffffffffffffffffffffffffffffffffffffffffffffffffffffffff1916148061046a575061046982610e76565b5b9050919050565b6060600180546104809061275e565b80601f01602080910402602001604051908101604052809291908181526020018280546104ac9061275e565b80156104f95780601f106104ce576101008083540402835291602001916104f9565b820191906000526020600020905b8154815290600101906020018083116104dc57829003601f168201915b5050505050905090565b600061050e82610f58565b61054d576040517f08c379a000000000000000000000000000000000000000000000000000000000815260040161054490612802565b60405180910390fd5b6005600083815260200190815260200160002060009054906101000a900473ffffffffffffffffffffffffffffffffffffffff169050919050565b600061059382610843565b90508073ffffffffffffffffffffffffffffffffffffffff168373ffffffffffffffffffffffffffffffffffffffff161415610604576040517f08c379a00000000000000000000000000000000000000000000000000000000081526004016105fb90612894565b60405180910390fd5b8073ffffffffffffffffffffffffffffffffffffffff16610623610fc4565b73ffffffffffffffffffffffffffffffffffffffff16148061065257506106518161064c610fc4565b610cea565b5b610691576040517f08c379a000000000000000000000000000000000000000000000000000000000815260040161068890612926565b60405180910390fd5b61069b8383610fcc565b505050565b6000600980549050905090565b6106be6106b8610fc4565b82611085565b6106fd576040517f08c379a00000000000000000000000000000000000000000000000000000000081526004016106f4906129b8565b60405180910390fd5b610708838383611163565b505050565b6000610718836108f5565b8210610759576040517f08c379a000000000000000000000000000000000000000000000000000000000815260040161075090612a4a565b60405180910390fd5b600760008473ffffffffffffffffffffffffffffffffffffffff1673ffffffffffffffffffffffffffffffffffffffff168152602001908152602001600020600083815260200190815260200160002054905092915050565b6107cd83838360405180602001604052806000815250610b06565b505050565b60006107dc6106a0565b821061081d576040517f08c379a000000000000000000000000000000000000000000000000000000000815260040161081490612adc565b60405180910390fd5b6009828154811061083157610830612afc565b5b90600052602060002001549050919050565b6000806003600084815260200190815260200160002060009054906101000a900473ffffffffffffffffffffffffffffffffffffffff169050600073ffffffffffffffffffffffffffffffffffffffff168173ffffffffffffffffffffffffffffffffffffffff1614156108ec576040517f08c379a00000000000000000000000000000000000000000000000000000000081526004016108e390612b9d565b60405180910390fd5b80915050919050565b60008073ffffffffffffffffffffffffffffffffffffffff168273ffffffffffffffffffffffffffffffffffffffff161415610966576040517f08c379a000000000000000000000000000000000000000000000000000000000815260040161095d90612c2f565b60405180910390fd5b600460008373ffffffffffffffffffffffffffffffffffffffff1673ffffffffffffffffffffffffffffffffffffffff168152602001908152602001600020549050919050565b6109b5610fc4565b73ffffffffffffffffffffffffffffffffffffffff166109d3610a35565b73ffffffffffffffffffffffffffffffffffffffff1614610a29576040517f08c379a0000000000000000000000000000000000000000000000000000000008152600401610a2090612c9b565b60405180910390fd5b610a3360006113ca565b565b60008060009054906101000a900473ffffffffffffffffffffffffffffffffffffffff16905090565b606060028054610a6d9061275e565b80601f0160208091040260200160405190810160405280929190818152602001828054610a999061275e565b8015610ae65780601f10610abb57610100808354040283529160200191610ae6565b820191906000526020600020905b815481529060010190602001808311610ac957829003601f168201915b5050505050905090565b610b02610afb610fc4565b838361148e565b5050565b610b17610b11610fc4565b83611085565b610b56576040517f08c379a0000000000000000000000000000000000000000000000000000000008152600401610b4d906129b8565b60405180910390fd5b610b62848484846115fb565b50505050565b610b70610fc4565b73ffffffffffffffffffffffffffffffffffffffff16610b8e610a35565b73ffffffffffffffffffffffffffffffffffffffff1614610be4576040517f08c379a0000000000000000000000000000000000000000000000000000000008152600401610bdb90612c9b565b60405180910390fd5b6000610bee6106a0565b905060005b8251811015610c3e57610c2b838281518110610c1257610c11612afc565b5b60200260200101518284610c269190612cea565b611657565b8080610c3690612d40565b915050610bf3565b505050565b6060610c4e82610f58565b610c8d576040517f08c379a0000000000000000000000000000000000000000000000000000000008152600401610c8490612dfb565b60405180910390fd5b6000610c97611675565b90506000815111610cb75760405180602001604052806000815250610ce2565b80610cc18461168c565b604051602001610cd2929190612e57565b6040516020818303038152906040525b915050919050565b6000600660008473ffffffffffffffffffffffffffffffffffffffff1673ffffffffffffffffffffffffffffffffffffffff16815260200190815260200160002060008373ffffffffffffffffffffffffffffffffffffffff1673ffffffffffffffffffffffffffffffffffffffff16815260200190815260200160002060009054906101000a900460ff16905092915050565b610d86610fc4565b73ffffffffffffffffffffffffffffffffffffffff16610da4610a35565b73ffffffffffffffffffffffffffffffffffffffff1614610dfa576040517f08c379a0000000000000000000000000000000000000000000000000000000008152600401610df190612c9b565b60405180910390fd5b600073ffffffffffffffffffffffffffffffffffffffff168173ffffffffffffffffffffffffffffffffffffffff161415610e6a576040517f08c379a0000000000000000000000000000000000000000000000000000000008152600401610e6190612eed565b60405180910390fd5b610e73816113ca565b50565b60007f80ac58cd000000000000000000000000000000000000000000000000000000007bffffffffffffffffffffffffffffffffffffffffffffffffffffffff1916827bffffffffffffffffffffffffffffffffffffffffffffffffffffffff19161480610f4157507f5b5e139f000000000000000000000000000000000000000000000000000000007bffffffffffffffffffffffffffffffffffffffffffffffffffffffff1916827bffffffffffffffffffffffffffffffffffffffffffffffffffffffff1916145b80610f515750610f50826117ed565b5b9050919050565b60008073ffffffffffffffffffffffffffffffffffffffff166003600084815260200190815260200160002060009054906101000a900473ffffffffffffffffffffffffffffffffffffffff1673ffffffffffffffffffffffffffffffffffffffff1614159050919050565b600033905090565b816005600083815260200190815260200160002060006101000a81548173ffffffffffffffffffffffffffffffffffffffff021916908373ffffffffffffffffffffffffffffffffffffffff160217905550808273ffffffffffffffffffffffffffffffffffffffff1661103f83610843565b73ffffffffffffffffffffffffffffffffffffffff167f8c5be1e5ebec7d5bd14f71427d1e84f3dd0314c0f7b2291e5b200ac8c7c3b92560405160405180910390a45050565b600061109082610f58565b6110cf576040517f08c379a00000000000000000000000000000000000000000000000000000000081526004016110c690612f7f565b60405180910390fd5b60006110da83610843565b90508073ffffffffffffffffffffffffffffffffffffffff168473ffffffffffffffffffffffffffffffffffffffff16148061114957508373ffffffffffffffffffffffffffffffffffffffff1661113184610503565b73ffffffffffffffffffffffffffffffffffffffff16145b8061115a57506111598185610cea565b5b91505092915050565b8273ffffffffffffffffffffffffffffffffffffffff1661118382610843565b73ffffffffffffffffffffffffffffffffffffffff16146111d9576040517f08c379a00000000000000000000000000000000000000000000000000000000081526004016111d090613011565b60405180910390fd5b600073ffffffffffffffffffffffffffffffffffffffff168273ffffffffffffffffffffffffffffffffffffffff161415611249576040517f08c379a0000000000000000000000000000000000000000000000000000000008152600401611240906130a3565b60405180910390fd5b611254838383611857565b61125f600082610fcc565b6001600460008573ffffffffffffffffffffffffffffffffffffffff1673ffffffffffffffffffffffffffffffffffffffff16815260200190815260200160002060008282546112af91906130c3565b925050819055506001600460008473ffffffffffffffffffffffffffffffffffffffff1673ffffffffffffffffffffffffffffffffffffffff16815260200190815260200160002060008282546113069190612cea565b92505081905550816003600083815260200190815260200160002060006101000a81548173ffffffffffffffffffffffffffffffffffffffff021916908373ffffffffffffffffffffffffffffffffffffffff160217905550808273ffffffffffffffffffffffffffffffffffffffff168473ffffffffffffffffffffffffffffffffffffffff167fddf252ad1be2c89b69c2b068fc378daa952ba7f163c4a11628f55a4df523b3ef60405160405180910390a46113c583838361196b565b505050565b60008060009054906101000a900473ffffffffffffffffffffffffffffffffffffffff169050816000806101000a81548173ffffffffffffffffffffffffffffffffffffffff021916908373ffffffffffffffffffffffffffffffffffffffff1602179055508173ffffffffffffffffffffffffffffffffffffffff168173ffffffffffffffffffffffffffffffffffffffff167f8be0079c531659141344cd1fd0a4f28419497f9722a3daafe3b4186f6b6457e060405160405180910390a35050565b8173ffffffffffffffffffffffffffffffffffffffff168373ffffffffffffffffffffffffffffffffffffffff1614156114fd576040517f08c379a00000000000000000000000000000000000000000000000000000000081526004016114f490613143565b60405180910390fd5b80600660008573ffffffffffffffffffffffffffffffffffffffff1673ffffffffffffffffffffffffffffffffffffffff16815260200190815260200160002060008473ffffffffffffffffffffffffffffffffffffffff1673ffffffffffffffffffffffffffffffffffffffff16815260200190815260200160002060006101000a81548160ff0219169083151502179055508173ffffffffffffffffffffffffffffffffffffffff168373ffffffffffffffffffffffffffffffffffffffff167f17307eab39ab6107e8899845ad3d59bd9653f200f220920489ca2b5937696c31836040516115ee919061210f565b60405180910390a3505050565b611606848484611163565b61161284848484611970565b611651576040517f08c379a0000000000000000000000000000000000000000000000000000000008152600401611648906131d5565b60405180910390fd5b50505050565b611671828260405180602001604052806000815250611af8565b5050565b606060405180602001604052806000815250905090565b606060008214156116d4576040518060400160405280600181526020017f300000000000000000000000000000000000000000000000000000000000000081525090506117e8565b600082905060005b600082146117065780806116ef90612d40565b915050600a826116ff9190613224565b91506116dc565b60008167ffffffffffffffff81111561172257611721612430565b5b6040519080825280601f01601f1916602001820160405280156117545781602001600182028036833780820191505090505b5090505b600085146117e15760018261176d91906130c3565b9150600a8561177c9190613255565b60306117889190612cea565b60f81b81838151811061179e5761179d612afc565b5b60200101907effffffffffffffffffffffffffffffffffffffffffffffffffffffffffffff1916908160001a905350600a856117da9190613224565b9450611758565b8093505050505b919050565b60007f01ffc9a7000000000000000000000000000000000000000000000000000000007bffffffffffffffffffffffffffffffffffffffffffffffffffffffff1916827bffffffffffffffffffffffffffffffffffffffffffffffffffffffff1916149050919050565b611862838383611b53565b600073ffffffffffffffffffffffffffffffffffffffff168373ffffffffffffffffffffffffffffffffffffffff1614156118a5576118a081611b58565b6118e4565b8173ffffffffffffffffffffffffffffffffffffffff168373ffffffffffffffffffffffffffffffffffffffff16146118e3576118e28382611ba1565b5b5b600073ffffffffffffffffffffffffffffffffffffffff168273ffffffffffffffffffffffffffffffffffffffff1614156119275761192281611d0e565b611966565b8273ffffffffffffffffffffffffffffffffffffffff168273ffffffffffffffffffffffffffffffffffffffff1614611965576119648282611ddf565b5b5b505050565b505050565b60006119918473ffffffffffffffffffffffffffffffffffffffff16611e5e565b15611aeb578373ffffffffffffffffffffffffffffffffffffffff1663150b7a026119ba610fc4565b8786866040518563ffffffff1660e01b81526004016119dc94939291906132db565b6020604051808303816000875af1925050508015611a1857506040513d601f19601f82011682018060405250810190611a15919061333c565b60015b611a9b573d8060008114611a48576040519150601f19603f3d011682016040523d82523d6000602084013e611a4d565b606091505b50600081511415611a93576040517f08c379a0000000000000000000000000000000000000000000000000000000008152600401611a8a906131d5565b60405180910390fd5b805181602001fd5b63150b7a0260e01b7bffffffffffffffffffffffffffffffffffffffffffffffffffffffff1916817bffffffffffffffffffffffffffffffffffffffffffffffffffffffff191614915050611af0565b600190505b949350505050565b611b028383611e81565b611b0f6000848484611970565b611b4e576040517f08c379a0000000000000000000000000000000000000000000000000000000008152600401611b45906131d5565b60405180910390fd5b505050565b505050565b600980549050600a600083815260200190815260200160002081905550600981908060018154018082558091505060019003906000526020600020016000909190919091505550565b60006001611bae846108f5565b611bb891906130c3565b9050600060086000848152602001908152602001600020549050818114611c9d576000600760008673ffffffffffffffffffffffffffffffffffffffff1673ffffffffffffffffffffffffffffffffffffffff168152602001908152602001600020600084815260200190815260200160002054905080600760008773ffffffffffffffffffffffffffffffffffffffff1673ffffffffffffffffffffffffffffffffffffffff168152602001908152602001600020600084815260200190815260200160002081905550816008600083815260200190815260200160002081905550505b6008600084815260200190815260200160002060009055600760008573ffffffffffffffffffffffffffffffffffffffff1673ffffffffffffffffffffffffffffffffffffffff16815260200190815260200160002060008381526020019081526020016000206000905550505050565b60006001600980549050611d2291906130c3565b90506000600a6000848152602001908152602001600020549050600060098381548110611d5257611d51612afc565b5b906000526020600020015490508060098381548110611d7457611d73612afc565b5b906000526020600020018190555081600a600083815260200190815260200160002081905550600a6000858152602001908152602001600020600090556009805480611dc357611dc2613369565b5b6001900381819060005260206000200160009055905550505050565b6000611dea836108f5565b905081600760008573ffffffffffffffffffffffffffffffffffffffff1673ffffffffffffffffffffffffffffffffffffffff168152602001908152602001600020600083815260200190815260200160002081905550806008600084815260200190815260200160002081905550505050565b6000808273ffffffffffffffffffffffffffffffffffffffff163b119050919050565b600073ffffffffffffffffffffffffffffffffffffffff168273ffffffffffffffffffffffffffffffffffffffff161415611ef1576040517f08c379a0000000000000000000000000000000000000000000000000000000008152600401611ee8906133e4565b60405180910390fd5b611efa81610f58565b15611f3a576040517f08c379a0000000000000000000000000000000000000000000000000000000008152600401611f3190613450565b60405180910390fd5b611f4660008383611857565b6001600460008473ffffffffffffffffffffffffffffffffffffffff1673ffffffffffffffffffffffffffffffffffffffff1681526020019081526020016000206000828254611f969190612cea565b92505081905550816003600083815260200190815260200160002060006101000a81548173ffffffffffffffffffffffffffffffffffffffff021916908373ffffffffffffffffffffffffffffffffffffffff160217905550808273ffffffffffffffffffffffffffffffffffffffff16600073ffffffffffffffffffffffffffffffffffffffff167fddf252ad1be2c89b69c2b068fc378daa952ba7f163c4a11628f55a4df523b3ef60405160405180910390a46120576000838361196b565b5050565b6000604051905090565b600080fd5b600080fd5b60007fffffffff0000000000000000000000000000000000000000000000000000000082169050919050565b6120a48161206f565b81146120af57600080fd5b50565b6000813590506120c18161209b565b92915050565b6000602082840312156120dd576120dc612065565b5b60006120eb848285016120b2565b91505092915050565b60008115159050919050565b612109816120f4565b82525050565b60006020820190506121246000830184612100565b92915050565b600081519050919050565b600082825260208201905092915050565b60005b83811015612164578082015181840152602081019050612149565b83811115612173576000848401525b50505050565b6000601f19601f8301169050919050565b60006121958261212a565b61219f8185612135565b93506121af818560208601612146565b6121b881612179565b840191505092915050565b600060208201905081810360008301526121dd818461218a565b905092915050565b6000819050919050565b6121f8816121e5565b811461220357600080fd5b50565b600081359050612215816121ef565b92915050565b60006020828403121561223157612230612065565b5b600061223f84828501612206565b91505092915050565b600073ffffffffffffffffffffffffffffffffffffffff82169050919050565b600061227382612248565b9050919050565b61228381612268565b82525050565b600060208201905061229e600083018461227a565b92915050565b6122ad81612268565b81146122b857600080fd5b50565b6000813590506122ca816122a4565b92915050565b600080604083850312156122e7576122e6612065565b5b60006122f5858286016122bb565b925050602061230685828601612206565b9150509250929050565b612319816121e5565b82525050565b60006020820190506123346000830184612310565b92915050565b60008060006060848603121561235357612352612065565b5b6000612361868287016122bb565b9350506020612372868287016122bb565b925050604061238386828701612206565b9150509250925092565b6000602082840312156123a3576123a2612065565b5b60006123b1848285016122bb565b91505092915050565b6123c3816120f4565b81146123ce57600080fd5b50565b6000813590506123e0816123ba565b92915050565b600080604083850312156123fd576123fc612065565b5b600061240b858286016122bb565b925050602061241c858286016123d1565b9150509250929050565b600080fd5b600080fd5b7f4e487b7100000000000000000000000000000000000000000000000000000000600052604160045260246000fd5b61246882612179565b810181811067ffffffffffffffff8211171561248757612486612430565b5b80604052505050565b600061249a61205b565b90506124a6828261245f565b919050565b600067ffffffffffffffff8211156124c6576124c5612430565b5b6124cf82612179565b9050602081019050919050565b82818337600083830152505050565b60006124fe6124f9846124ab565b612490565b90508281526020810184848401111561251a5761251961242b565b5b6125258482856124dc565b509392505050565b600082601f83011261254257612541612426565b5b81356125528482602086016124eb565b91505092915050565b6000806000806080858703121561257557612574612065565b5b6000612583878288016122bb565b9450506020612594878288016122bb565b93505060406125a587828801612206565b925050606085013567ffffffffffffffff8111156125c6576125c561206a565b5b6125d28782880161252d565b91505092959194509250565b600067ffffffffffffffff8211156125f9576125f8612430565b5b602082029050602081019050919050565b600080fd5b600061262261261d846125de565b612490565b905080838252602082019050602084028301858111156126455761264461260a565b5b835b8181101561266e578061265a88826122bb565b845260208401935050602081019050612647565b5050509392505050565b600082601f83011261268d5761268c612426565b5b813561269d84826020860161260f565b91505092915050565b6000602082840312156126bc576126bb612065565b5b600082013567ffffffffffffffff8111156126da576126d961206a565b5b6126e684828501612678565b91505092915050565b6000806040838503121561270657612705612065565b5b6000612714858286016122bb565b9250506020612725858286016122bb565b9150509250929050565b7f4e487b7100000000000000000000000000000000000000000000000000000000600052602260045260246000fd5b6000600282049050600182168061277657607f821691505b6020821081141561278a5761278961272f565b5b50919050565b7f4552433732313a20617070726f76656420717565727920666f72206e6f6e657860008201527f697374656e7420746f6b656e0000000000000000000000000000000000000000602082015250565b60006127ec602c83612135565b91506127f782612790565b604082019050919050565b6000602082019050818103600083015261281b816127df565b9050919050565b7f4552433732313a20617070726f76616c20746f2063757272656e74206f776e6560008201527f7200000000000000000000000000000000000000000000000000000000000000602082015250565b600061287e602183612135565b915061288982612822565b604082019050919050565b600060208201905081810360008301526128ad81612871565b9050919050565b7f4552433732313a20617070726f76652063616c6c6572206973206e6f74206f7760008201527f6e6572206e6f7220617070726f76656420666f7220616c6c0000000000000000602082015250565b6000612910603883612135565b915061291b826128b4565b604082019050919050565b6000602082019050818103600083015261293f81612903565b9050919050565b7f4552433732313a207472616e736665722063616c6c6572206973206e6f74206f60008201527f776e6572206e6f7220617070726f766564000000000000000000000000000000602082015250565b60006129a2603183612135565b91506129ad82612946565b604082019050919050565b600060208201905081810360008301526129d181612995565b9050919050565b7f455243373231456e756d657261626c653a206f776e657220696e646578206f7560008201527f74206f6620626f756e6473000000000000000000000000000000000000000000602082015250565b6000612a34602b83612135565b9150612a3f826129d8565b604082019050919050565b60006020820190508181036000830152612a6381612a27565b9050919050565b7f455243373231456e756d657261626c653a20676c6f62616c20696e646578206f60008201527f7574206f6620626f756e64730000000000000000000000000000000000000000602082015250565b6000612ac6602c83612135565b9150612ad182612a6a565b604082019050919050565b60006020820190508181036000830152612af581612ab9565b9050919050565b7f4e487b7100000000000000000000000000000000000000000000000000000000600052603260045260246000fd5b7f4552433732313a206f776e657220717565727920666f72206e6f6e657869737460008201527f656e7420746f6b656e0000000000000000000000000000000000000000000000602082015250565b6000612b87602983612135565b9150612b9282612b2b565b604082019050919050565b60006020820190508181036000830152612bb681612b7a565b9050919050565b7f4552433732313a2062616c616e636520717565727920666f7220746865207a6560008201527f726f206164647265737300000000000000000000000000000000000000000000602082015250565b6000612c19602a83612135565b9150612c2482612bbd565b604082019050919050565b60006020820190508181036000830152612c4881612c0c565b9050919050565b7f4f776e61626c653a2063616c6c6572206973206e6f7420746865206f776e6572600082015250565b6000612c85602083612135565b9150612c9082612c4f565b602082019050919050565b60006020820190508181036000830152612cb481612c78565b9050919050565b7f4e487b7100000000000000000000000000000000000000000000000000000000600052601160045260246000fd5b6000612cf5826121e5565b9150612d00836121e5565b9250827fffffffffffffffffffffffffffffffffffffffffffffffffffffffffffffffff03821115612d3557612d34612cbb565b5b828201905092915050565b6000612d4b826121e5565b91507fffffffffffffffffffffffffffffffffffffffffffffffffffffffffffffffff821415612d7e57612d7d612cbb565b5b600182019050919050565b7f4552433732314d657461646174613a2055524920717565727920666f72206e6f60008201527f6e6578697374656e7420746f6b656e0000000000000000000000000000000000602082015250565b6000612de5602f83612135565b9150612df082612d89565b604082019050919050565b60006020820190508181036000830152612e1481612dd8565b9050919050565b600081905092915050565b6000612e318261212a565b612e3b8185612e1b565b9350612e4b818560208601612146565b80840191505092915050565b6000612e638285612e26565b9150612e6f8284612e26565b91508190509392505050565b7f4f776e61626c653a206e6577206f776e657220697320746865207a65726f206160008201527f6464726573730000000000000000000000000000000000000000000000000000602082015250565b6000612ed7602683612135565b9150612ee282612e7b565b604082019050919050565b60006020820190508181036000830152612f0681612eca565b9050919050565b7f4552433732313a206f70657261746f7220717565727920666f72206e6f6e657860008201527f697374656e7420746f6b656e0000000000000000000000000000000000000000602082015250565b6000612f69602c83612135565b9150612f7482612f0d565b604082019050919050565b60006020820190508181036000830152612f9881612f5c565b9050919050565b7f4552433732313a207472616e736665722066726f6d20696e636f72726563742060008201527f6f776e6572000000000000000000000000000000000000000000000000000000602082015250565b6000612ffb602583612135565b915061300682612f9f565b604082019050919050565b6000602082019050818103600083015261302a81612fee565b9050919050565b7f4552433732313a207472616e7366657220746f20746865207a65726f2061646460008201527f7265737300000000000000000000000000000000000000000000000000000000602082015250565b600061308d602483612135565b915061309882613031565b604082019050919050565b600060208201905081810360008301526130bc81613080565b9050919050565b60006130ce826121e5565b91506130d9836121e5565b9250828210156130ec576130eb612cbb565b5b828203905092915050565b7f4552433732313a20617070726f766520746f2063616c6c657200000000000000600082015250565b600061312d601983612135565b9150613138826130f7565b602082019050919050565b6000602082019050818103600083015261315c81613120565b9050919050565b7f4552433732313a207472616e7366657220746f206e6f6e20455243373231526560008201527f63656976657220696d706c656d656e7465720000000000000000000000000000602082015250565b60006131bf603283612135565b91506131ca82613163565b604082019050919050565b600060208201905081810360008301526131ee816131b2565b9050919050565b7f4e487b7100000000000000000000000000000000000000000000000000000000600052601260045260246000fd5b600061322f826121e5565b915061323a836121e5565b92508261324a576132496131f5565b5b828204905092915050565b6000613260826121e5565b915061326b836121e5565b92508261327b5761327a6131f5565b5b828206905092915050565b600081519050919050565b600082825260208201905092915050565b60006132ad82613286565b6132b78185613291565b93506132c7818560208601612146565b6132d081612179565b840191505092915050565b60006080820190506132f0600083018761227a565b6132fd602083018661227a565b61330a6040830185612310565b818103606083015261331c81846132a2565b905095945050505050565b6000815190506133368161209b565b92915050565b60006020828403121561335257613351612065565b5b600061336084828501613327565b91505092915050565b7f4e487b7100000000000000000000000000000000000000000000000000000000600052603160045260246000fd5b7f4552433732313a206d696e7420746f20746865207a65726f2061646472657373600082015250565b60006133ce602083612135565b91506133d982613398565b602082019050919050565b600060208201905081810360008301526133fd816133c1565b9050919050565b7f4552433732313a20746f6b656e20616c7265616479206d696e74656400000000600082015250565b600061343a601c83612135565b915061344582613404565b602082019050919050565b600060208201905081810360008301526134698161342d565b905091905056fea2646970667358221220c96eca96a0012dd3bf15884a41582c5c3e32498902c71da31688b2bed9b3f70d64736f6c634300080b0033",
  "immutableReferences": {},
  "source": "// SPDX-License-Identifier: MIT\npragma solidity >=0.4.22 <0.9.0;\n\nimport \"@openzeppelin/contracts/access/Ownable.sol\";\n\nimport \"@openzeppelin/contracts/token/ERC721/extensions/ERC721Enumerable.sol\";\n\ncontract ZNFT is Ownable, ERC721Enumerable{\n\n    constructor () ERC721(\"ZYJ NFT\", \"ZNFT\") {}\n\n    /* ==================================== Only Owner ==================================== */\n    \n    function mint(address[] memory receivers) public onlyOwner {\n        uint tokenNums = totalSupply();\n\n        for (uint i = 0; i < receivers.length; i++) {\n            _safeMint(receivers[i], tokenNums + i);\n        }\n    }\n\n}",
  "sourcePath": "G:\\code\\BlockChain\\ZYDAO\\contracts\\contracts\\ZNFT.sol",
  "compiler": {
    "name": "solc",
    "version": "0.8.11+commit.d7f03943.Emscripten.clang"
  },
  "schemaVersion": "3.4.4",
  "updatedAt": "2022-03-20T08:30:18.987Z",
  "networkType": "ethereum",
  "devdoc": {
    "kind": "dev",
    "methods": {
      "approve(address,uint256)": {
        "details": "See {IERC721-approve}."
      },
      "balanceOf(address)": {
        "details": "See {IERC721-balanceOf}."
      },
      "getApproved(uint256)": {
        "details": "See {IERC721-getApproved}."
      },
      "isApprovedForAll(address,address)": {
        "details": "See {IERC721-isApprovedForAll}."
      },
      "name()": {
        "details": "See {IERC721Metadata-name}."
      },
      "owner()": {
        "details": "Returns the address of the current owner."
      },
      "ownerOf(uint256)": {
        "details": "See {IERC721-ownerOf}."
      },
      "renounceOwnership()": {
        "details": "Leaves the contract without owner. It will not be possible to call `onlyOwner` functions anymore. Can only be called by the current owner. NOTE: Renouncing ownership will leave the contract without an owner, thereby removing any functionality that is only available to the owner."
      },
      "safeTransferFrom(address,address,uint256)": {
        "details": "See {IERC721-safeTransferFrom}."
      },
      "safeTransferFrom(address,address,uint256,bytes)": {
        "details": "See {IERC721-safeTransferFrom}."
      },
      "setApprovalForAll(address,bool)": {
        "details": "See {IERC721-setApprovalForAll}."
      },
      "supportsInterface(bytes4)": {
        "details": "See {IERC165-supportsInterface}."
      },
      "symbol()": {
        "details": "See {IERC721Metadata-symbol}."
      },
      "tokenByIndex(uint256)": {
        "details": "See {IERC721Enumerable-tokenByIndex}."
      },
      "tokenOfOwnerByIndex(address,uint256)": {
        "details": "See {IERC721Enumerable-tokenOfOwnerByIndex}."
      },
      "tokenURI(uint256)": {
        "details": "See {IERC721Metadata-tokenURI}."
      },
      "totalSupply()": {
        "details": "See {IERC721Enumerable-totalSupply}."
      },
      "transferFrom(address,address,uint256)": {
        "details": "See {IERC721-transferFrom}."
      },
      "transferOwnership(address)": {
        "details": "Transfers ownership of the contract to a new account (`newOwner`). Can only be called by the current owner."
      }
    },
    "version": 1
  },
  "userdoc": {
    "kind": "user",
    "methods": {},
    "version": 1
  }
}