{
  "contractName": "ZNFT",
  "abi": [
    {
      "inputs": [],
      "stateMutability": "nonpayable",
      "type": "constructor"
    },
    {
      "anonymous": false,
      "inputs": [
        {
          "indexed": true,
          "internalType": "address",
          "name": "owner",
          "type": "address"
        },
        {
          "indexed": true,
          "internalType": "address",
          "name": "approved",
          "type": "address"
        },
        {
          "indexed": true,
          "internalType": "uint256",
          "name": "tokenId",
          "type": "uint256"
        }
      ],
      "name": "Approval",
      "type": "event"
    },
    {
      "anonymous": false,
      "inputs": [
        {
          "indexed": true,
          "internalType": "address",
          "name": "owner",
          "type": "address"
        },
        {
          "indexed": true,
          "internalType": "address",
          "name": "operator",
          "type": "address"
        },
        {
          "indexed": false,
          "internalType": "bool",
          "name": "approved",
          "type": "bool"
        }
      ],
      "name": "ApprovalForAll",
      "type": "event"
    },
    {
      "anonymous": false,
      "inputs": [
        {
          "indexed": true,
          "internalType": "address",
          "name": "previousOwner",
          "type": "address"
        },
        {
          "indexed": true,
          "internalType": "address",
          "name": "newOwner",
          "type": "address"
        }
      ],
      "name": "OwnershipTransferred",
      "type": "event"
    },
    {
      "anonymous": false,
      "inputs": [
        {
          "indexed": true,
          "internalType": "address",
          "name": "from",
          "type": "address"
        },
        {
          "indexed": true,
          "internalType": "address",
          "name": "to",
          "type": "address"
        },
        {
          "indexed": true,
          "internalType": "uint256",
          "name": "tokenId",
          "type": "uint256"
        }
      ],
      "name": "Transfer",
      "type": "event"
    },
    {
      "inputs": [
        {
          "internalType": "address",
          "name": "to",
          "type": "address"
        },
        {
          "internalType": "uint256",
          "name": "tokenId",
          "type": "uint256"
        }
      ],
      "name": "approve",
      "outputs": [],
      "stateMutability": "nonpayable",
      "type": "function"
    },
    {
      "inputs": [
        {
          "internalType": "address",
          "name": "owner",
          "type": "address"
        }
      ],
      "name": "balanceOf",
      "outputs": [
        {
          "internalType": "uint256",
          "name": "",
          "type": "uint256"
        }
      ],
      "stateMutability": "view",
      "type": "function",
      "constant": true
    },
    {
      "inputs": [
        {
          "internalType": "uint256",
          "name": "tokenId",
          "type": "uint256"
        }
      ],
      "name": "getApproved",
      "outputs": [
        {
          "internalType": "address",
          "name": "",
          "type": "address"
        }
      ],
      "stateMutability": "view",
      "type": "function",
      "constant": true
    },
    {
      "inputs": [
        {
          "internalType": "address",
          "name": "owner",
          "type": "address"
        },
        {
          "internalType": "address",
          "name": "operator",
          "type": "address"
        }
      ],
      "name": "isApprovedForAll",
      "outputs": [
        {
          "internalType": "bool",
          "name": "",
          "type": "bool"
        }
      ],
      "stateMutability": "view",
      "type": "function",
      "constant": true
    },
    {
      "inputs": [],
      "name": "name",
      "outputs": [
        {
          "internalType": "string",
          "name": "",
          "type": "string"
        }
      ],
      "stateMutability": "view",
      "type": "function",
      "constant": true
    },
    {
      "inputs": [],
      "name": "owner",
      "outputs": [
        {
          "internalType": "address",
          "name": "",
          "type": "address"
        }
      ],
      "stateMutability": "view",
      "type": "function",
      "constant": true
    },
    {
      "inputs": [
        {
          "internalType": "uint256",
          "name": "tokenId",
          "type": "uint256"
        }
      ],
      "name": "ownerOf",
      "outputs": [
        {
          "internalType": "address",
          "name": "",
          "type": "address"
        }
      ],
      "stateMutability": "view",
      "type": "function",
      "constant": true
    },
    {
      "inputs": [],
      "name": "renounceOwnership",
      "outputs": [],
      "stateMutability": "nonpayable",
      "type": "function"
    },
    {
      "inputs": [
        {
          "internalType": "address",
          "name": "from",
          "type": "address"
        },
        {
          "internalType": "address",
          "name": "to",
          "type": "address"
        },
        {
          "internalType": "uint256",
          "name": "tokenId",
          "type": "uint256"
        }
      ],
      "name": "safeTransferFrom",
      "outputs": [],
      "stateMutability": "nonpayable",
      "type": "function"
    },
    {
      "inputs": [
        {
          "internalType": "address",
          "name": "from",
          "type": "address"
        },
        {
          "internalType": "address",
          "name": "to",
          "type": "address"
        },
        {
          "internalType": "uint256",
          "name": "tokenId",
          "type": "uint256"
        },
        {
          "internalType": "bytes",
          "name": "_data",
          "type": "bytes"
        }
      ],
      "name": "safeTransferFrom",
      "outputs": [],
      "stateMutability": "nonpayable",
      "type": "function"
    },
    {
      "inputs": [
        {
          "internalType": "address",
          "name": "operator",
          "type": "address"
        },
        {
          "internalType": "bool",
          "name": "approved",
          "type": "bool"
        }
      ],
      "name": "setApprovalForAll",
      "outputs": [],
      "stateMutability": "nonpayable",
      "type": "function"
    },
    {
      "inputs": [
        {
          "internalType": "bytes4",
          "name": "interfaceId",
          "type": "bytes4"
        }
      ],
      "name": "supportsInterface",
      "outputs": [
        {
          "internalType": "bool",
          "name": "",
          "type": "bool"
        }
      ],
      "stateMutability": "view",
      "type": "function",
      "constant": true
    },
    {
      "inputs": [],
      "name": "symbol",
      "outputs": [
        {
          "internalType": "string",
          "name": "",
          "type": "string"
        }
      ],
      "stateMutability": "view",
      "type": "function",
      "constant": true
    },
    {
      "inputs": [
        {
          "internalType": "uint256",
          "name": "index",
          "type": "uint256"
        }
      ],
      "name": "tokenByIndex",
      "outputs": [
        {
          "internalType": "uint256",
          "name": "",
          "type": "uint256"
        }
      ],
      "stateMutability": "view",
      "type": "function",
      "constant": true
    },
    {
      "inputs": [
        {
          "internalType": "address",
          "name": "owner",
          "type": "address"
        },
        {
          "internalType": "uint256",
          "name": "index",
          "type": "uint256"
        }
      ],
      "name": "tokenOfOwnerByIndex",
      "outputs": [
        {
          "internalType": "uint256",
          "name": "",
          "type": "uint256"
        }
      ],
      "stateMutability": "view",
      "type": "function",
      "constant": true
    },
    {
      "inputs": [
        {
          "internalType": "uint256",
          "name": "tokenId",
          "type": "uint256"
        }
      ],
      "name": "tokenURI",
      "outputs": [
        {
          "internalType": "string",
          "name": "",
          "type": "string"
        }
      ],
      "stateMutability": "view",
      "type": "function",
      "constant": true
    },
    {
      "inputs": [],
      "name": "totalSupply",
      "outputs": [
        {
          "internalType": "uint256",
          "name": "",
          "type": "uint256"
        }
      ],
      "stateMutability": "view",
      "type": "function",
      "constant": true
    },
    {
      "inputs": [
        {
          "internalType": "address",
          "name": "from",
          "type": "address"
        },
        {
          "internalType": "address",
          "name": "to",
          "type": "address"
        },
        {
          "internalType": "uint256",
          "name": "tokenId",
          "type": "uint256"
        }
      ],
      "name": "transferFrom",
      "outputs": [],
      "stateMutability": "nonpayable",
      "type": "function"
    },
    {
      "inputs": [
        {
          "internalType": "address",
          "name": "newOwner",
          "type": "address"
        }
      ],
      "name": "transferOwnership",
      "outputs": [],
      "stateMutability": "nonpayable",
      "type": "function"
    },
    {
      "inputs": [
        {
          "internalType": "address",
          "name": "account",
          "type": "address"
        }
      ],
      "name": "isMinter",
      "outputs": [
        {
          "internalType": "bool",
          "name": "",
          "type": "bool"
        }
      ],
      "stateMutability": "view",
      "type": "function",
      "constant": true
    },
    {
      "inputs": [
        {
          "internalType": "address[]",
          "name": "receivers",
          "type": "address[]"
        }
      ],
      "name": "mint",
      "outputs": [],
      "stateMutability": "nonpayable",
      "type": "function"
    },
    {
      "inputs": [
        {
          "internalType": "address",
          "name": "newMinter",
          "type": "address"
        }
      ],
      "name": "addMinter",
      "outputs": [],
      "stateMutability": "nonpayable",
      "type": "function"
    },
    {
      "inputs": [
        {
          "internalType": "address",
          "name": "removedMinter",
          "type": "address"
        }
      ],
      "name": "removeMinter",
      "outputs": [],
      "stateMutability": "nonpayable",
      "type": "function"
    }
  ],
  "bytecode": "0x60806040523480156200001157600080fd5b506040518060400160405280600781526020017f5a594a204e4654000000000000000000000000000000000000000000000000008152506040518060400160405280600481526020017f5a4e4654000000000000000000000000000000000000000000000000000000008152506200009e620000926200013060201b60201c565b6200013860201b60201c565b8160019080519060200190620000b6929190620001fc565b508060029080519060200190620000cf929190620001fc565b5050506001600b60003373ffffffffffffffffffffffffffffffffffffffff1673ffffffffffffffffffffffffffffffffffffffff16815260200190815260200160002060006101000a81548160ff02191690831515021790555062000311565b600033905090565b60008060009054906101000a900473ffffffffffffffffffffffffffffffffffffffff169050816000806101000a81548173ffffffffffffffffffffffffffffffffffffffff021916908373ffffffffffffffffffffffffffffffffffffffff1602179055508173ffffffffffffffffffffffffffffffffffffffff168173ffffffffffffffffffffffffffffffffffffffff167f8be0079c531659141344cd1fd0a4f28419497f9722a3daafe3b4186f6b6457e060405160405180910390a35050565b8280546200020a90620002db565b90600052602060002090601f0160209004810192826200022e57600085556200027a565b82601f106200024957805160ff19168380011785556200027a565b828001600101855582156200027a579182015b82811115620002795782518255916020019190600101906200025c565b5b5090506200028991906200028d565b5090565b5b80821115620002a85760008160009055506001016200028e565b5090565b7f4e487b7100000000000000000000000000000000000000000000000000000000600052602260045260246000fd5b60006002820490506001821680620002f457607f821691505b602082108114156200030b576200030a620002ac565b5b50919050565b6137af80620003216000396000f3fe608060405234801561001057600080fd5b506004361061014d5760003560e01c806370a08231116100c3578063aa271e1a1161007c578063aa271e1a1461039c578063b88d4fde146103cc578063bd075b84146103e8578063c87b56dd14610404578063e985e9c514610434578063f2fde38b146104645761014d565b806370a08231146102ee578063715018a61461031e5780638da5cb5b1461032857806395d89b4114610346578063983b2d5614610364578063a22cb465146103805761014d565b806323b872dd1161011557806323b872dd1461020a5780632f745c59146102265780633092afd51461025657806342842e0e146102725780634f6ccce71461028e5780636352211e146102be5761014d565b806301ffc9a71461015257806306fdde0314610182578063081812fc146101a0578063095ea7b3146101d057806318160ddd146101ec575b600080fd5b61016c60048036038101906101679190612364565b610480565b60405161017991906123ac565b60405180910390f35b61018a6104fa565b6040516101979190612460565b60405180910390f35b6101ba60048036038101906101b591906124b8565b61058c565b6040516101c79190612526565b60405180910390f35b6101ea60048036038101906101e5919061256d565b610611565b005b6101f4610729565b60405161020191906125bc565b60405180910390f35b610224600480360381019061021f91906125d7565b610736565b005b610240600480360381019061023b919061256d565b610796565b60405161024d91906125bc565b60405180910390f35b610270600480360381019061026b919061262a565b61083b565b005b61028c600480360381019061028791906125d7565b610912565b005b6102a860048036038101906102a391906124b8565b610932565b6040516102b591906125bc565b60405180910390f35b6102d860048036038101906102d391906124b8565b6109a3565b6040516102e59190612526565b60405180910390f35b6103086004803603810190610303919061262a565b610a55565b60405161031591906125bc565b60405180910390f35b610326610b0d565b005b610330610b95565b60405161033d9190612526565b60405180910390f35b61034e610bbe565b60405161035b9190612460565b60405180910390f35b61037e6004803603810190610379919061262a565b610c50565b005b61039a60048036038101906103959190612683565b610d27565b005b6103b660048036038101906103b1919061262a565b610d3d565b6040516103c391906123ac565b60405180910390f35b6103e660048036038101906103e191906127f8565b610d93565b005b61040260048036038101906103fd9190612943565b610df5565b005b61041e600480360381019061041991906124b8565b610ee0565b60405161042b9190612460565b60405180910390f35b61044e6004803603810190610449919061298c565b610f87565b60405161045b91906123ac565b60405180910390f35b61047e6004803603810190610479919061262a565b61101b565b005b60007f780e9d63000000000000000000000000000000000000000000000000000000007bffffffffffffffffffffffffffffffffffffffffffffffffffffffff1916827bffffffffffffffffffffffffffffffffffffffffffffffffffffffff191614806104f357506104f282611113565b5b9050919050565b606060018054610509906129fb565b80601f0160208091040260200160405190810160405280929190818152602001828054610535906129fb565b80156105825780601f1061055757610100808354040283529160200191610582565b820191906000526020600020905b81548152906001019060200180831161056557829003601f168201915b5050505050905090565b6000610597826111f5565b6105d6576040517f08c379a00000000000000000000000000000000000000000000000000000000081526004016105cd90612a9f565b60405180910390fd5b6005600083815260200190815260200160002060009054906101000a900473ffffffffffffffffffffffffffffffffffffffff169050919050565b600061061c826109a3565b90508073ffffffffffffffffffffffffffffffffffffffff168373ffffffffffffffffffffffffffffffffffffffff16141561068d576040517f08c379a000000000000000000000000000000000000000000000000000000000815260040161068490612b31565b60405180910390fd5b8073ffffffffffffffffffffffffffffffffffffffff166106ac611261565b73ffffffffffffffffffffffffffffffffffffffff1614806106db57506106da816106d5611261565b610f87565b5b61071a576040517f08c379a000000000000000000000000000000000000000000000000000000000815260040161071190612bc3565b60405180910390fd5b6107248383611269565b505050565b6000600980549050905090565b610747610741611261565b82611322565b610786576040517f08c379a000000000000000000000000000000000000000000000000000000000815260040161077d90612c55565b60405180910390fd5b610791838383611400565b505050565b60006107a183610a55565b82106107e2576040517f08c379a00000000000000000000000000000000000000000000000000000000081526004016107d990612ce7565b60405180910390fd5b600760008473ffffffffffffffffffffffffffffffffffffffff1673ffffffffffffffffffffffffffffffffffffffff168152602001908152602001600020600083815260200190815260200160002054905092915050565b610843611261565b73ffffffffffffffffffffffffffffffffffffffff16610861610b95565b73ffffffffffffffffffffffffffffffffffffffff16146108b7576040517f08c379a00000000000000000000000000000000000000000000000000000000081526004016108ae90612d53565b60405180910390fd5b6000600b60008373ffffffffffffffffffffffffffffffffffffffff1673ffffffffffffffffffffffffffffffffffffffff16815260200190815260200160002060006101000a81548160ff02191690831515021790555050565b61092d83838360405180602001604052806000815250610d93565b505050565b600061093c610729565b821061097d576040517f08c379a000000000000000000000000000000000000000000000000000000000815260040161097490612de5565b60405180910390fd5b6009828154811061099157610990612e05565b5b90600052602060002001549050919050565b6000806003600084815260200190815260200160002060009054906101000a900473ffffffffffffffffffffffffffffffffffffffff169050600073ffffffffffffffffffffffffffffffffffffffff168173ffffffffffffffffffffffffffffffffffffffff161415610a4c576040517f08c379a0000000000000000000000000000000000000000000000000000000008152600401610a4390612ea6565b60405180910390fd5b80915050919050565b60008073ffffffffffffffffffffffffffffffffffffffff168273ffffffffffffffffffffffffffffffffffffffff161415610ac6576040517f08c379a0000000000000000000000000000000000000000000000000000000008152600401610abd90612f38565b60405180910390fd5b600460008373ffffffffffffffffffffffffffffffffffffffff1673ffffffffffffffffffffffffffffffffffffffff168152602001908152602001600020549050919050565b610b15611261565b73ffffffffffffffffffffffffffffffffffffffff16610b33610b95565b73ffffffffffffffffffffffffffffffffffffffff1614610b89576040517f08c379a0000000000000000000000000000000000000000000000000000000008152600401610b8090612d53565b60405180910390fd5b610b936000611667565b565b60008060009054906101000a900473ffffffffffffffffffffffffffffffffffffffff16905090565b606060028054610bcd906129fb565b80601f0160208091040260200160405190810160405280929190818152602001828054610bf9906129fb565b8015610c465780601f10610c1b57610100808354040283529160200191610c46565b820191906000526020600020905b815481529060010190602001808311610c2957829003601f168201915b5050505050905090565b610c58611261565b73ffffffffffffffffffffffffffffffffffffffff16610c76610b95565b73ffffffffffffffffffffffffffffffffffffffff1614610ccc576040517f08c379a0000000000000000000000000000000000000000000000000000000008152600401610cc390612d53565b60405180910390fd5b6001600b60008373ffffffffffffffffffffffffffffffffffffffff1673ffffffffffffffffffffffffffffffffffffffff16815260200190815260200160002060006101000a81548160ff02191690831515021790555050565b610d39610d32611261565b838361172b565b5050565b6000600b60008373ffffffffffffffffffffffffffffffffffffffff1673ffffffffffffffffffffffffffffffffffffffff16815260200190815260200160002060009054906101000a900460ff169050919050565b610da4610d9e611261565b83611322565b610de3576040517f08c379a0000000000000000000000000000000000000000000000000000000008152600401610dda90612c55565b60405180910390fd5b610def84848484611898565b50505050565b600b60003373ffffffffffffffffffffffffffffffffffffffff1673ffffffffffffffffffffffffffffffffffffffff16815260200190815260200160002060009054906101000a900460ff16610e81576040517f08c379a0000000000000000000000000000000000000000000000000000000008152600401610e7890612fa4565b60405180910390fd5b6000610e8b610729565b905060005b8251811015610edb57610ec8838281518110610eaf57610eae612e05565b5b60200260200101518284610ec39190612ff3565b6118f4565b8080610ed390613049565b915050610e90565b505050565b6060610eeb826111f5565b610f2a576040517f08c379a0000000000000000000000000000000000000000000000000000000008152600401610f2190613104565b60405180910390fd5b6000610f34611912565b90506000815111610f545760405180602001604052806000815250610f7f565b80610f5e84611929565b604051602001610f6f929190613160565b6040516020818303038152906040525b915050919050565b6000600660008473ffffffffffffffffffffffffffffffffffffffff1673ffffffffffffffffffffffffffffffffffffffff16815260200190815260200160002060008373ffffffffffffffffffffffffffffffffffffffff1673ffffffffffffffffffffffffffffffffffffffff16815260200190815260200160002060009054906101000a900460ff16905092915050565b611023611261565b73ffffffffffffffffffffffffffffffffffffffff16611041610b95565b73ffffffffffffffffffffffffffffffffffffffff1614611097576040517f08c379a000000000000000000000000000000000000000000000000000000000815260040161108e90612d53565b60405180910390fd5b600073ffffffffffffffffffffffffffffffffffffffff168173ffffffffffffffffffffffffffffffffffffffff161415611107576040517f08c379a00000000000000000000000000000000000000000000000000000000081526004016110fe906131f6565b60405180910390fd5b61111081611667565b50565b60007f80ac58cd000000000000000000000000000000000000000000000000000000007bffffffffffffffffffffffffffffffffffffffffffffffffffffffff1916827bffffffffffffffffffffffffffffffffffffffffffffffffffffffff191614806111de57507f5b5e139f000000000000000000000000000000000000000000000000000000007bffffffffffffffffffffffffffffffffffffffffffffffffffffffff1916827bffffffffffffffffffffffffffffffffffffffffffffffffffffffff1916145b806111ee57506111ed82611a8a565b5b9050919050565b60008073ffffffffffffffffffffffffffffffffffffffff166003600084815260200190815260200160002060009054906101000a900473ffffffffffffffffffffffffffffffffffffffff1673ffffffffffffffffffffffffffffffffffffffff1614159050919050565b600033905090565b816005600083815260200190815260200160002060006101000a81548173ffffffffffffffffffffffffffffffffffffffff021916908373ffffffffffffffffffffffffffffffffffffffff160217905550808273ffffffffffffffffffffffffffffffffffffffff166112dc836109a3565b73ffffffffffffffffffffffffffffffffffffffff167f8c5be1e5ebec7d5bd14f71427d1e84f3dd0314c0f7b2291e5b200ac8c7c3b92560405160405180910390a45050565b600061132d826111f5565b61136c576040517f08c379a000000000000000000000000000000000000000000000000000000000815260040161136390613288565b60405180910390fd5b6000611377836109a3565b90508073ffffffffffffffffffffffffffffffffffffffff168473ffffffffffffffffffffffffffffffffffffffff1614806113e657508373ffffffffffffffffffffffffffffffffffffffff166113ce8461058c565b73ffffffffffffffffffffffffffffffffffffffff16145b806113f757506113f68185610f87565b5b91505092915050565b8273ffffffffffffffffffffffffffffffffffffffff16611420826109a3565b73ffffffffffffffffffffffffffffffffffffffff1614611476576040517f08c379a000000000000000000000000000000000000000000000000000000000815260040161146d9061331a565b60405180910390fd5b600073ffffffffffffffffffffffffffffffffffffffff168273ffffffffffffffffffffffffffffffffffffffff1614156114e6576040517f08c379a00000000000000000000000000000000000000000000000000000000081526004016114dd906133ac565b60405180910390fd5b6114f1838383611af4565b6114fc600082611269565b6001600460008573ffffffffffffffffffffffffffffffffffffffff1673ffffffffffffffffffffffffffffffffffffffff168152602001908152602001600020600082825461154c91906133cc565b925050819055506001600460008473ffffffffffffffffffffffffffffffffffffffff1673ffffffffffffffffffffffffffffffffffffffff16815260200190815260200160002060008282546115a39190612ff3565b92505081905550816003600083815260200190815260200160002060006101000a81548173ffffffffffffffffffffffffffffffffffffffff021916908373ffffffffffffffffffffffffffffffffffffffff160217905550808273ffffffffffffffffffffffffffffffffffffffff168473ffffffffffffffffffffffffffffffffffffffff167fddf252ad1be2c89b69c2b068fc378daa952ba7f163c4a11628f55a4df523b3ef60405160405180910390a4611662838383611c08565b505050565b60008060009054906101000a900473ffffffffffffffffffffffffffffffffffffffff169050816000806101000a81548173ffffffffffffffffffffffffffffffffffffffff021916908373ffffffffffffffffffffffffffffffffffffffff1602179055508173ffffffffffffffffffffffffffffffffffffffff168173ffffffffffffffffffffffffffffffffffffffff167f8be0079c531659141344cd1fd0a4f28419497f9722a3daafe3b4186f6b6457e060405160405180910390a35050565b8173ffffffffffffffffffffffffffffffffffffffff168373ffffffffffffffffffffffffffffffffffffffff16141561179a576040517f08c379a00000000000000000000000000000000000000000000000000000000081526004016117919061344c565b60405180910390fd5b80600660008573ffffffffffffffffffffffffffffffffffffffff1673ffffffffffffffffffffffffffffffffffffffff16815260200190815260200160002060008473ffffffffffffffffffffffffffffffffffffffff1673ffffffffffffffffffffffffffffffffffffffff16815260200190815260200160002060006101000a81548160ff0219169083151502179055508173ffffffffffffffffffffffffffffffffffffffff168373ffffffffffffffffffffffffffffffffffffffff167f17307eab39ab6107e8899845ad3d59bd9653f200f220920489ca2b5937696c318360405161188b91906123ac565b60405180910390a3505050565b6118a3848484611400565b6118af84848484611c0d565b6118ee576040517f08c379a00000000000000000000000000000000000000000000000000000000081526004016118e5906134de565b60405180910390fd5b50505050565b61190e828260405180602001604052806000815250611d95565b5050565b606060405180602001604052806000815250905090565b60606000821415611971576040518060400160405280600181526020017f30000000000000000000000000000000000000000000000000000000000000008152509050611a85565b600082905060005b600082146119a357808061198c90613049565b915050600a8261199c919061352d565b9150611979565b60008167ffffffffffffffff8111156119bf576119be6126cd565b5b6040519080825280601f01601f1916602001820160405280156119f15781602001600182028036833780820191505090505b5090505b60008514611a7e57600182611a0a91906133cc565b9150600a85611a19919061355e565b6030611a259190612ff3565b60f81b818381518110611a3b57611a3a612e05565b5b60200101907effffffffffffffffffffffffffffffffffffffffffffffffffffffffffffff1916908160001a905350600a85611a77919061352d565b94506119f5565b8093505050505b919050565b60007f01ffc9a7000000000000000000000000000000000000000000000000000000007bffffffffffffffffffffffffffffffffffffffffffffffffffffffff1916827bffffffffffffffffffffffffffffffffffffffffffffffffffffffff1916149050919050565b611aff838383611df0565b600073ffffffffffffffffffffffffffffffffffffffff168373ffffffffffffffffffffffffffffffffffffffff161415611b4257611b3d81611df5565b611b81565b8173ffffffffffffffffffffffffffffffffffffffff168373ffffffffffffffffffffffffffffffffffffffff1614611b8057611b7f8382611e3e565b5b5b600073ffffffffffffffffffffffffffffffffffffffff168273ffffffffffffffffffffffffffffffffffffffff161415611bc457611bbf81611fab565b611c03565b8273ffffffffffffffffffffffffffffffffffffffff168273ffffffffffffffffffffffffffffffffffffffff1614611c0257611c01828261207c565b5b5b505050565b505050565b6000611c2e8473ffffffffffffffffffffffffffffffffffffffff166120fb565b15611d88578373ffffffffffffffffffffffffffffffffffffffff1663150b7a02611c57611261565b8786866040518563ffffffff1660e01b8152600401611c7994939291906135e4565b6020604051808303816000875af1925050508015611cb557506040513d601f19601f82011682018060405250810190611cb29190613645565b60015b611d38573d8060008114611ce5576040519150601f19603f3d011682016040523d82523d6000602084013e611cea565b606091505b50600081511415611d30576040517f08c379a0000000000000000000000000000000000000000000000000000000008152600401611d27906134de565b60405180910390fd5b805181602001fd5b63150b7a0260e01b7bffffffffffffffffffffffffffffffffffffffffffffffffffffffff1916817bffffffffffffffffffffffffffffffffffffffffffffffffffffffff191614915050611d8d565b600190505b949350505050565b611d9f838361211e565b611dac6000848484611c0d565b611deb576040517f08c379a0000000000000000000000000000000000000000000000000000000008152600401611de2906134de565b60405180910390fd5b505050565b505050565b600980549050600a600083815260200190815260200160002081905550600981908060018154018082558091505060019003906000526020600020016000909190919091505550565b60006001611e4b84610a55565b611e5591906133cc565b9050600060086000848152602001908152602001600020549050818114611f3a576000600760008673ffffffffffffffffffffffffffffffffffffffff1673ffffffffffffffffffffffffffffffffffffffff168152602001908152602001600020600084815260200190815260200160002054905080600760008773ffffffffffffffffffffffffffffffffffffffff1673ffffffffffffffffffffffffffffffffffffffff168152602001908152602001600020600084815260200190815260200160002081905550816008600083815260200190815260200160002081905550505b6008600084815260200190815260200160002060009055600760008573ffffffffffffffffffffffffffffffffffffffff1673ffffffffffffffffffffffffffffffffffffffff16815260200190815260200160002060008381526020019081526020016000206000905550505050565b60006001600980549050611fbf91906133cc565b90506000600a6000848152602001908152602001600020549050600060098381548110611fef57611fee612e05565b5b90600052602060002001549050806009838154811061201157612010612e05565b5b906000526020600020018190555081600a600083815260200190815260200160002081905550600a60008581526020019081526020016000206000905560098054806120605761205f613672565b5b6001900381819060005260206000200160009055905550505050565b600061208783610a55565b905081600760008573ffffffffffffffffffffffffffffffffffffffff1673ffffffffffffffffffffffffffffffffffffffff168152602001908152602001600020600083815260200190815260200160002081905550806008600084815260200190815260200160002081905550505050565b6000808273ffffffffffffffffffffffffffffffffffffffff163b119050919050565b600073ffffffffffffffffffffffffffffffffffffffff168273ffffffffffffffffffffffffffffffffffffffff16141561218e576040517f08c379a0000000000000000000000000000000000000000000000000000000008152600401612185906136ed565b60405180910390fd5b612197816111f5565b156121d7576040517f08c379a00000000000000000000000000000000000000000000000000000000081526004016121ce90613759565b60405180910390fd5b6121e360008383611af4565b6001600460008473ffffffffffffffffffffffffffffffffffffffff1673ffffffffffffffffffffffffffffffffffffffff16815260200190815260200160002060008282546122339190612ff3565b92505081905550816003600083815260200190815260200160002060006101000a81548173ffffffffffffffffffffffffffffffffffffffff021916908373ffffffffffffffffffffffffffffffffffffffff160217905550808273ffffffffffffffffffffffffffffffffffffffff16600073ffffffffffffffffffffffffffffffffffffffff167fddf252ad1be2c89b69c2b068fc378daa952ba7f163c4a11628f55a4df523b3ef60405160405180910390a46122f460008383611c08565b5050565b6000604051905090565b600080fd5b600080fd5b60007fffffffff0000000000000000000000000000000000000000000000000000000082169050919050565b6123418161230c565b811461234c57600080fd5b50565b60008135905061235e81612338565b92915050565b60006020828403121561237a57612379612302565b5b60006123888482850161234f565b91505092915050565b60008115159050919050565b6123a681612391565b82525050565b60006020820190506123c1600083018461239d565b92915050565b600081519050919050565b600082825260208201905092915050565b60005b838110156124015780820151818401526020810190506123e6565b83811115612410576000848401525b50505050565b6000601f19601f8301169050919050565b6000612432826123c7565b61243c81856123d2565b935061244c8185602086016123e3565b61245581612416565b840191505092915050565b6000602082019050818103600083015261247a8184612427565b905092915050565b6000819050919050565b61249581612482565b81146124a057600080fd5b50565b6000813590506124b28161248c565b92915050565b6000602082840312156124ce576124cd612302565b5b60006124dc848285016124a3565b91505092915050565b600073ffffffffffffffffffffffffffffffffffffffff82169050919050565b6000612510826124e5565b9050919050565b61252081612505565b82525050565b600060208201905061253b6000830184612517565b92915050565b61254a81612505565b811461255557600080fd5b50565b60008135905061256781612541565b92915050565b6000806040838503121561258457612583612302565b5b600061259285828601612558565b92505060206125a3858286016124a3565b9150509250929050565b6125b681612482565b82525050565b60006020820190506125d160008301846125ad565b92915050565b6000806000606084860312156125f0576125ef612302565b5b60006125fe86828701612558565b935050602061260f86828701612558565b9250506040612620868287016124a3565b9150509250925092565b6000602082840312156126405761263f612302565b5b600061264e84828501612558565b91505092915050565b61266081612391565b811461266b57600080fd5b50565b60008135905061267d81612657565b92915050565b6000806040838503121561269a57612699612302565b5b60006126a885828601612558565b92505060206126b98582860161266e565b9150509250929050565b600080fd5b600080fd5b7f4e487b7100000000000000000000000000000000000000000000000000000000600052604160045260246000fd5b61270582612416565b810181811067ffffffffffffffff82111715612724576127236126cd565b5b80604052505050565b60006127376122f8565b905061274382826126fc565b919050565b600067ffffffffffffffff821115612763576127626126cd565b5b61276c82612416565b9050602081019050919050565b82818337600083830152505050565b600061279b61279684612748565b61272d565b9050828152602081018484840111156127b7576127b66126c8565b5b6127c2848285612779565b509392505050565b600082601f8301126127df576127de6126c3565b5b81356127ef848260208601612788565b91505092915050565b6000806000806080858703121561281257612811612302565b5b600061282087828801612558565b945050602061283187828801612558565b9350506040612842878288016124a3565b925050606085013567ffffffffffffffff81111561286357612862612307565b5b61286f878288016127ca565b91505092959194509250565b600067ffffffffffffffff821115612896576128956126cd565b5b602082029050602081019050919050565b600080fd5b60006128bf6128ba8461287b565b61272d565b905080838252602082019050602084028301858111156128e2576128e16128a7565b5b835b8181101561290b57806128f78882612558565b8452602084019350506020810190506128e4565b5050509392505050565b600082601f83011261292a576129296126c3565b5b813561293a8482602086016128ac565b91505092915050565b60006020828403121561295957612958612302565b5b600082013567ffffffffffffffff81111561297757612976612307565b5b61298384828501612915565b91505092915050565b600080604083850312156129a3576129a2612302565b5b60006129b185828601612558565b92505060206129c285828601612558565b9150509250929050565b7f4e487b7100000000000000000000000000000000000000000000000000000000600052602260045260246000fd5b60006002820490506001821680612a1357607f821691505b60208210811415612a2757612a266129cc565b5b50919050565b7f4552433732313a20617070726f76656420717565727920666f72206e6f6e657860008201527f697374656e7420746f6b656e0000000000000000000000000000000000000000602082015250565b6000612a89602c836123d2565b9150612a9482612a2d565b604082019050919050565b60006020820190508181036000830152612ab881612a7c565b9050919050565b7f4552433732313a20617070726f76616c20746f2063757272656e74206f776e6560008201527f7200000000000000000000000000000000000000000000000000000000000000602082015250565b6000612b1b6021836123d2565b9150612b2682612abf565b604082019050919050565b60006020820190508181036000830152612b4a81612b0e565b9050919050565b7f4552433732313a20617070726f76652063616c6c6572206973206e6f74206f7760008201527f6e6572206e6f7220617070726f76656420666f7220616c6c0000000000000000602082015250565b6000612bad6038836123d2565b9150612bb882612b51565b604082019050919050565b60006020820190508181036000830152612bdc81612ba0565b9050919050565b7f4552433732313a207472616e736665722063616c6c6572206973206e6f74206f60008201527f776e6572206e6f7220617070726f766564000000000000000000000000000000602082015250565b6000612c3f6031836123d2565b9150612c4a82612be3565b604082019050919050565b60006020820190508181036000830152612c6e81612c32565b9050919050565b7f455243373231456e756d657261626c653a206f776e657220696e646578206f7560008201527f74206f6620626f756e6473000000000000000000000000000000000000000000602082015250565b6000612cd1602b836123d2565b9150612cdc82612c75565b604082019050919050565b60006020820190508181036000830152612d0081612cc4565b9050919050565b7f4f776e61626c653a2063616c6c6572206973206e6f7420746865206f776e6572600082015250565b6000612d3d6020836123d2565b9150612d4882612d07565b602082019050919050565b60006020820190508181036000830152612d6c81612d30565b9050919050565b7f455243373231456e756d657261626c653a20676c6f62616c20696e646578206f60008201527f7574206f6620626f756e64730000000000000000000000000000000000000000602082015250565b6000612dcf602c836123d2565b9150612dda82612d73565b604082019050919050565b60006020820190508181036000830152612dfe81612dc2565b9050919050565b7f4e487b7100000000000000000000000000000000000000000000000000000000600052603260045260246000fd5b7f4552433732313a206f776e657220717565727920666f72206e6f6e657869737460008201527f656e7420746f6b656e0000000000000000000000000000000000000000000000602082015250565b6000612e906029836123d2565b9150612e9b82612e34565b604082019050919050565b60006020820190508181036000830152612ebf81612e83565b9050919050565b7f4552433732313a2062616c616e636520717565727920666f7220746865207a6560008201527f726f206164647265737300000000000000000000000000000000000000000000602082015250565b6000612f22602a836123d2565b9150612f2d82612ec6565b604082019050919050565b60006020820190508181036000830152612f5181612f15565b9050919050565b7f5a4e46543a2063616c6c6572206973206e6f7420746865206d696e7465720000600082015250565b6000612f8e601e836123d2565b9150612f9982612f58565b602082019050919050565b60006020820190508181036000830152612fbd81612f81565b9050919050565b7f4e487b7100000000000000000000000000000000000000000000000000000000600052601160045260246000fd5b6000612ffe82612482565b915061300983612482565b9250827fffffffffffffffffffffffffffffffffffffffffffffffffffffffffffffffff0382111561303e5761303d612fc4565b5b828201905092915050565b600061305482612482565b91507fffffffffffffffffffffffffffffffffffffffffffffffffffffffffffffffff82141561308757613086612fc4565b5b600182019050919050565b7f4552433732314d657461646174613a2055524920717565727920666f72206e6f60008201527f6e6578697374656e7420746f6b656e0000000000000000000000000000000000602082015250565b60006130ee602f836123d2565b91506130f982613092565b604082019050919050565b6000602082019050818103600083015261311d816130e1565b9050919050565b600081905092915050565b600061313a826123c7565b6131448185613124565b93506131548185602086016123e3565b80840191505092915050565b600061316c828561312f565b9150613178828461312f565b91508190509392505050565b7f4f776e61626c653a206e6577206f776e657220697320746865207a65726f206160008201527f6464726573730000000000000000000000000000000000000000000000000000602082015250565b60006131e06026836123d2565b91506131eb82613184565b604082019050919050565b6000602082019050818103600083015261320f816131d3565b9050919050565b7f4552433732313a206f70657261746f7220717565727920666f72206e6f6e657860008201527f697374656e7420746f6b656e0000000000000000000000000000000000000000602082015250565b6000613272602c836123d2565b915061327d82613216565b604082019050919050565b600060208201905081810360008301526132a181613265565b9050919050565b7f4552433732313a207472616e736665722066726f6d20696e636f72726563742060008201527f6f776e6572000000000000000000000000000000000000000000000000000000602082015250565b60006133046025836123d2565b915061330f826132a8565b604082019050919050565b60006020820190508181036000830152613333816132f7565b9050919050565b7f4552433732313a207472616e7366657220746f20746865207a65726f2061646460008201527f7265737300000000000000000000000000000000000000000000000000000000602082015250565b60006133966024836123d2565b91506133a18261333a565b604082019050919050565b600060208201905081810360008301526133c581613389565b9050919050565b60006133d782612482565b91506133e283612482565b9250828210156133f5576133f4612fc4565b5b828203905092915050565b7f4552433732313a20617070726f766520746f2063616c6c657200000000000000600082015250565b60006134366019836123d2565b915061344182613400565b602082019050919050565b6000602082019050818103600083015261346581613429565b9050919050565b7f4552433732313a207472616e7366657220746f206e6f6e20455243373231526560008201527f63656976657220696d706c656d656e7465720000000000000000000000000000602082015250565b60006134c86032836123d2565b91506134d38261346c565b604082019050919050565b600060208201905081810360008301526134f7816134bb565b9050919050565b7f4e487b7100000000000000000000000000000000000000000000000000000000600052601260045260246000fd5b600061353882612482565b915061354383612482565b925082613553576135526134fe565b5b828204905092915050565b600061356982612482565b915061357483612482565b925082613584576135836134fe565b5b828206905092915050565b600081519050919050565b600082825260208201905092915050565b60006135b68261358f565b6135c0818561359a565b93506135d08185602086016123e3565b6135d981612416565b840191505092915050565b60006080820190506135f96000830187612517565b6136066020830186612517565b61361360408301856125ad565b818103606083015261362581846135ab565b905095945050505050565b60008151905061363f81612338565b92915050565b60006020828403121561365b5761365a612302565b5b600061366984828501613630565b91505092915050565b7f4e487b7100000000000000000000000000000000000000000000000000000000600052603160045260246000fd5b7f4552433732313a206d696e7420746f20746865207a65726f2061646472657373600082015250565b60006136d76020836123d2565b91506136e2826136a1565b602082019050919050565b60006020820190508181036000830152613706816136ca565b9050919050565b7f4552433732313a20746f6b656e20616c7265616479206d696e74656400000000600082015250565b6000613743601c836123d2565b915061374e8261370d565b602082019050919050565b6000602082019050818103600083015261377281613736565b905091905056fea2646970667358221220559530bfc61c682274ceb1b3ab77a6bc8af108cc13562bc46a0f66d1779efc6864736f6c634300080b0033",
  "immutableReferences": {},
  "source": "// SPDX-License-Identifier: MIT\npragma solidity >=0.4.22 <0.9.0;\n\nimport \"@openzeppelin/contracts/access/Ownable.sol\";\n\nimport \"@openzeppelin/contracts/token/ERC721/extensions/ERC721Enumerable.sol\";\n\ncontract ZNFT is Ownable, ERC721Enumerable{\n\n    mapping(address => bool) private m_isMinter;\n\n    constructor() ERC721(\"ZYJ NFT\", \"ZNFT\") {\n        m_isMinter[msg.sender] = true;\n    }\n\n    /* ==================================== Read ==================================== */\n\n    function isMinter(address account) external view returns (bool) {\n        return m_isMinter[account];\n    }\n\n    /* ==================================== Modifier ==================================== */\n\n    modifier onlyMinter() {\n        require(m_isMinter[msg.sender], \"ZNFT: caller is not the minter\");\n        _;\n    }\n\n    /* ==================================== Only Minter ==================================== */\n    \n    function mint(address[] memory receivers) external onlyMinter {\n        uint tokenNums = totalSupply();\n\n        for (uint i = 0; i < receivers.length; i++) {\n            _safeMint(receivers[i], tokenNums + i);\n        }\n    }\n\n    /* ==================================== Only Owner ==================================== */\n\n    function addMinter(address newMinter) external onlyOwner {\n        m_isMinter[newMinter] = true;\n    }\n\n    function removeMinter(address removedMinter) external onlyOwner {\n        m_isMinter[removedMinter] = false;\n    }\n}",
  "sourcePath": "G:\\code\\BlockChain\\ZYDAO\\contracts\\contracts\\ZNFT.sol",
  "compiler": {
    "name": "solc",
    "version": "0.8.11+commit.d7f03943.Emscripten.clang"
  },
  "schemaVersion": "3.4.4",
  "updatedAt": "2022-03-22T13:35:20.193Z",
  "networkType": "ethereum",
  "devdoc": {
    "kind": "dev",
    "methods": {
      "approve(address,uint256)": {
        "details": "See {IERC721-approve}."
      },
      "balanceOf(address)": {
        "details": "See {IERC721-balanceOf}."
      },
      "getApproved(uint256)": {
        "details": "See {IERC721-getApproved}."
      },
      "isApprovedForAll(address,address)": {
        "details": "See {IERC721-isApprovedForAll}."
      },
      "name()": {
        "details": "See {IERC721Metadata-name}."
      },
      "owner()": {
        "details": "Returns the address of the current owner."
      },
      "ownerOf(uint256)": {
        "details": "See {IERC721-ownerOf}."
      },
      "renounceOwnership()": {
        "details": "Leaves the contract without owner. It will not be possible to call `onlyOwner` functions anymore. Can only be called by the current owner. NOTE: Renouncing ownership will leave the contract without an owner, thereby removing any functionality that is only available to the owner."
      },
      "safeTransferFrom(address,address,uint256)": {
        "details": "See {IERC721-safeTransferFrom}."
      },
      "safeTransferFrom(address,address,uint256,bytes)": {
        "details": "See {IERC721-safeTransferFrom}."
      },
      "setApprovalForAll(address,bool)": {
        "details": "See {IERC721-setApprovalForAll}."
      },
      "supportsInterface(bytes4)": {
        "details": "See {IERC165-supportsInterface}."
      },
      "symbol()": {
        "details": "See {IERC721Metadata-symbol}."
      },
      "tokenByIndex(uint256)": {
        "details": "See {IERC721Enumerable-tokenByIndex}."
      },
      "tokenOfOwnerByIndex(address,uint256)": {
        "details": "See {IERC721Enumerable-tokenOfOwnerByIndex}."
      },
      "tokenURI(uint256)": {
        "details": "See {IERC721Metadata-tokenURI}."
      },
      "totalSupply()": {
        "details": "See {IERC721Enumerable-totalSupply}."
      },
      "transferFrom(address,address,uint256)": {
        "details": "See {IERC721-transferFrom}."
      },
      "transferOwnership(address)": {
        "details": "Transfers ownership of the contract to a new account (`newOwner`). Can only be called by the current owner."
      }
    },
    "version": 1
  },
  "userdoc": {
    "kind": "user",
    "methods": {},
    "version": 1
  }
}